:100000000C942A000C94C2000C9402010C9447003A
:100010000C9447000C9447000C9447000C94430246
:100020000C9447000C9447000C9447000C94470034
:100030000C9447000C9447000C9447000C94470024
:100040000C9447000C9447000C9447000C94470014
:100050000C94470011241FBECFE5D8E0DEBFCDBF12
:1000600010E0A0E6B0E0E4E5F6E002C005900D92F5
:10007000AC38B107D9F720E0ACE8B0E001C01D9280
:10008000AA3BB207E1F70E94DD010C9428030C940F
:1000900000009BB3907F9BBB2BB3982F92959F70D2
:1000A000922B9BBB9BB390629BBBEFE0F7E2319737
:1000B000F1F700C000009BB39F7D9BBBEFE0F7E230
:1000C0003197F1F700C000009BB3907F9BBB9BB3BF
:1000D0008F70892B8BBB8BB380628BBB8FE097E2D9
:1000E0000197F1F700C000008BB38F7D8BBBEFE071
:1000F000F7E23197F1F700C000000895CF93DF9346
:10010000EC01611108C08BB38F7E8BBB842F80689C
:100110000E9449000FC08BB38F7E8BBB842F806CF5
:100120000E94490007C08BB380618BBB899190E02E
:100130000E94490088818111F6CFDF91CF91089507
:100140008FEF8ABB1BBA8BB38F7E8BBB82E00E9482
:1001500049008BB38F7E8BBB88E20E9449008BB332
:100160008F7E8BBB8CE00E9449008BB38F7E8BBB54
:1001700086E00E9449000895482F86E690E00E949C
:100180007E0008951F920F920FB60F9211242F93A5
:100190003F934F935F936F937F938F939F93AF930F
:1001A000BF93CF93DF93EF93FF938091640090917F
:1001B0006500880F991F9BBD8ABD609191006130D9
:1001C00071F4C0E9D0E0888170E090E00E94BC004A
:1001D0001982488160E088E690E00E947E00FF91ED
:1001E000EF91DF91CF91BF91AF919F918F917F91CF
:1001F0006F915F914F913F912F910F900FBE0F9094
:100200001F9018951F920F920FB60F9211242F93E3
:100210003F934F935F936F937F938F939F93AF938E
:10022000BF93CF93DF93EF93FF93609191006111A0
:100230000FC0C0E9D0E0888170E090E00E94BC006F
:1002400081E08983488161E088E690E00E947E0039
:10025000FF91EF91DF91CF91BF91AF919F918F91DE
:100260007F916F915F914F913F912F910F900FBEB2
:100270000F901F9018950F931F93CF93DF938AE7EA
:100280008BBD82E18ABD8EB583608EBDC0E0D0E0BB
:1002900000E010E01AC00D5F1F4F0E94B502817090
:1002A0009078992324F401978E6F9F6F0196FE0139
:1002B000EE0FFF1FEE56FF4F00838183402F682F04
:1002C00083E790E00E947E002196C431D1051CF3A3
:1002D000DF91CF911F910F9108950F931F93CF93AB
:1002E000DF938AE78BBD82E18ABD8EB581608EBDCA
:1002F000C0E0D0E000E010E01AC00D5F1F4F0E9488
:10030000B50281709078992324F401978E6F9F6FC6
:100310000196FE01EE0FFF1FEE56FF4F0083818313
:10032000402F682F83E790E00E947E002196C43121
:10033000D1051CF3DF91CF911F910F9108958BB3DD
:100340008F7E8BBB81E00E94490042E060E085E740
:1003500090E00E947E002FE38DE093E021508040EA
:100360009040E1F700C000008BB38F7E8BBB81E033
:100370000E94490044E060E082E890E00E947E0034
:100380002FE38DE093E0215080409040E1F700C0E2
:1003900000008BB38F7E8BBB81E00E944900E0E9B7
:1003A000F0E081E08083818341E061E088E690E0D5
:1003B0000E947E000E946D0108950E94A00085E0C9
:1003C00085BF8BB7806C8BBF8EB588608EBD89B7BB
:1003D000806189BF0E949F017894FFCFCF93DF9304
:1003E00080918E0090918F00889779F48BB38F7EE7
:1003F0008BBB81E00E9449000E943B0181E0809319
:10040000900010928F0010928E00C0E9D0E06981B8
:10041000888170E090E00E94BC0048814F5F488373
:1004200080918C0090918D00FC01EE0FFF1FEE5625
:10043000FF4F208142130FC030919100FC01EE0F5D
:10044000FF1FEE56FF4F2181321729F0019690933E
:100450008D0080938C006091910088E690E00E946E
:100460007E008BB38F7E8BBB88E10E944900809118
:100470008E0090918F00019690938F0080938E0054
:10048000DF91CF9108951F920F920FB60F92112412
:100490002F933F934F935F936F937F938F939F938C
:1004A000AF93BF93EF93FF93F8940E94EE0178947B
:1004B000FF91EF91BF91AF919F918F917F916F913C
:1004C0005F914F913F912F910F900FBE0F901F9012
:1004D00018958F929F92AF92BF92CF92DF92EF9238
:1004E000FF92CF93DF93EC01688179818A819B81B0
:1004F000611571058105910521F464E279ED8BE5C3
:1005000097E02DE133EF41E050E00E94C502490140
:100510005A019B01AC01A7EAB1E40E94E4026B011D
:100520007C01ACEEB4EFA50194010E94F202DC0163
:10053000CB018C0D9D1DAE1DBF1DB7FF03C00197E4
:10054000A109B04888839983AA83BB839F77DF91F1
:10055000CF91FF90EF90DF90CF90BF90AF909F90A2
:100560008F9008950E946902089580E690E00E94AD
:1005700069020895A0E0B0E080936000909361006C
:10058000A0936200B09363000895052E97FB1EF4BC
:1005900000940E94DC0257FD07D00E94F70207FC7E
:1005A00003D04EF40C94DC02509540953095219583
:1005B0003F4F4F4F5F4F089590958095709561958F
:1005C0007F4F8F4F9F4F08950E941903A59F900D55
:1005D000B49F900DA49F800D911D11240895B7FF25
:1005E0000C94E4020E94E402821B930B0895A1E2A2
:1005F0001A2EAA1BBB1BFD010DC0AA1FBB1FEE1F9D
:10060000FF1FA217B307E407F50720F0A21BB30BE7
:10061000E40BF50B661F771F881F991F1A9469F763
:1006200060957095809590959B01AC01BD01CF01BF
:100630000895A29FB001B39FC001A39F700D811DBB
:100640001124911DB29F700D811D1124911D0895DB
:04065000F894FFCF4C
:1006540001000000010020002E00796F75206C6FEE
:100664007365007C0052554E204D414E2047414D4C
:0C06740045004C45545320474F21000026
:00000001FF
