:100000000C942A000C94C2000C9402010C9447003A
:100010000C9447000C9447000C9447000C94320257
:100020000C9447000C9447000C9447000C94470034
:100030000C9447000C9447000C9447000C94470024
:100040000C9447000C9447000C9447000C94470014
:100050000C94470011241FBECFE5D8E0DEBFCDBF12
:1000600010E0A0E6B0E0E2E3F6E002C005900D92F9
:10007000A239B107D9F720E0A2E9B0E001C01D9292
:10008000A03CB207E1F70E94C0010C9417030C9446
:1000900000009BB3907F9BBB2BB3982F92959F70D2
:1000A000922B9BBB9BB390629BBBEFE0F7E2319737
:1000B000F1F700C000009BB39F7D9BBBEFE0F7E230
:1000C0003197F1F700C000009BB3907F9BBB9BB3BF
:1000D0008F70892B8BBB8BB380628BBB8FE097E2D9
:1000E0000197F1F700C000008BB38F7D8BBBEFE071
:1000F000F7E23197F1F700C000000895CF93DF9346
:10010000EC01611108C08BB38F7E8BBB842F80689C
:100110000E9449000FC08BB38F7E8BBB842F806CF5
:100120000E94490007C08BB380618BBB899190E02E
:100130000E94490088818111F6CFDF91CF91089507
:100140008FEF8ABB1BBA8BB38F7E8BBB82E00E9482
:1001500049008BB38F7E8BBB88E20E9449008BB332
:100160008F7E8BBB8CE00E9449008BB38F7E8BBB54
:1001700086E00E9449000895482F88E690E00E949A
:100180007E0008951F920F920FB60F9211242F93A5
:100190003F934F935F936F937F938F939F93AF930F
:1001A000BF93CF93DF93EF93FF938091660090917D
:1001B0006700880F991F9BBD8ABD609197006130D1
:1001C00071F4C6E9D0E0888170E090E00E94BC0044
:1001D0001982488160E08AE690E00E947E00FF91EB
:1001E000EF91DF91CF91BF91AF919F918F917F91CF
:1001F0006F915F914F913F912F910F900FBE0F9094
:100200001F9018951F920F920FB60F9211242F93E3
:100210003F934F935F936F937F938F939F93AF938E
:10022000BF93CF93DF93EF93FF936091970061119A
:100230000FC0C6E9D0E0888170E090E00E94BC0069
:1002400081E08983488161E08AE690E00E947E0037
:10025000FF91EF91DF91CF91BF91AF919F918F91DE
:100260007F916F915F914F913F912F910F900FBEB2
:100270000F901F901895F8948BB38F7E8BBB81E005
:100280000E94490042E060E08CE690E00E947E001F
:100290001EBC08950F931F93CF93DF9384EF91E0DB
:1002A00090936700809366009BBD8ABD1DBC1CBCFB
:1002B0008EB583608EBDC0E0D0E000E010E01AC0D3
:1002C0000D5F1F4F0E94A40281709078992324F43F
:1002D00001978E6F9F6F0196FE01EE0FFF1FE8568C
:1002E000FF4F00838183402F682F89E790E00E94B1
:1002F0007E002196C431D1051CF3DF91CF911F916F
:100300000F9108958BB38F7E8BBB81E00E944900D3
:1003100042E060E08BE790E00E947E002FE38DE0FA
:1003200093E0215080409040E1F700C000008BB383
:100330008F7E8BBB81E00E94490044E060E088E84A
:1003400090E00E947E002FE38DE093E021508040FA
:100350009040E1F700C000008BB38F7E8BBB81E043
:100360000E944900E6E9F0E081E08083818341E07A
:1003700061E08AE690E00E947E000E944A010895B2
:100380000E94A00085E085BF8BB7806C8BBF8EB5C7
:1003900088608EBD89B7806189BF0E948201789490
:1003A000FFCFCF93DF938091940090919500889731
:1003B000A9F482E090E090936500809364008BB391
:1003C0008F7E8BBB81E00E9449000E944A0181E040
:1003D000809396001092950010929400C6E9D0E0A8
:1003E0006981888170E090E00E94BC0088818F5F05
:1003F00088832091920030919300F901EE0FFF1F46
:10040000E856FF4F9081891313C090919700F9012E
:10041000EE0FFF1FE856FF4F8181981303C00E9423
:100420003B0106C02F5F3F4F309393002093920013
:10043000E6E9F0E0408161818AE690E00E947E007A
:100440008BB38F7E8BBB88E10E9449008091940022
:100450009091950001969093950080939400DF9180
:10046000CF9108951F920F920FB60F9211242F93E0
:100470003F934F935F936F937F938F939F93AF932C
:10048000BF93EF93FF93F8940E94D1017894FF916A
:10049000EF91BF91AF919F918F917F916F915F91FC
:1004A0004F913F912F910F900FBE0F901F90189575
:1004B0008F929F92AF92BF92CF92DF92EF92FF9274
:1004C000CF93DF93EC01688179818A819B816115EB
:1004D00071058105910521F464E279ED8BE597E0E2
:1004E0002DE133EF41E050E00E94B40249015A018E
:1004F0009B01AC01A7EAB1E40E94D3026B017C012D
:10050000ACEEB4EFA50194010E94E102DC01CB0145
:100510008C0D9D1DAE1DBF1DB7FF03C00197A10926
:10052000B04888839983AA83BB839F77DF91CF915B
:10053000FF90EF90DF90CF90BF90AF909F908F9003
:1005400008950E945802089580E690E00E945802A3
:100550000895A0E0B0E08093600090936100A093C4
:100560006200B09363000895052E97FB1EF400947B
:100570000E94CB0257FD07D00E94E60207FC03D081
:100580004EF40C94CB0250954095309521953F4FF9
:100590004F4F5F4F089590958095709561957F4F6F
:1005A0008F4F9F4F08950E940803A59F900DB49F01
:1005B000900DA49F800D911D11240895B7FF0C94F8
:1005C000D3020E94D302821B930B0895A1E21A2E3C
:1005D000AA1BBB1BFD010DC0AA1FBB1FEE1FFF1FE7
:1005E000A217B307E407F50720F0A21BB30BE40B37
:1005F000F50B661F771F881F991F1A9469F760957E
:100600007095809590959B01AC01BD01CF01089537
:10061000A29FB001B39FC001A39F700D811D112443
:10062000911DB29F700D811D1124911D0895F894A4
:02063000FFCFFA
:10063200010000000100010020002E00596F75200A
:100642006C6F736521203A28007C0052554E204D74
:10065200414E2047414D45004C45545320474F21C0
:02066200000096
:00000001FF
